{"abi":[{"type":"function","name":"approve","inputs":[{"name":"spender","type":"address","internalType":"address"},{"name":"id","type":"uint256","internalType":"uint256"}],"outputs":[],"stateMutability":"payable"},{"type":"function","name":"balanceOf","inputs":[{"name":"owner","type":"address","internalType":"address"}],"outputs":[{"name":"","type":"uint256","internalType":"uint256"}],"stateMutability":"view"},{"type":"function","name":"getApproved","inputs":[{"name":"id","type":"uint256","internalType":"uint256"}],"outputs":[{"name":"","type":"address","internalType":"address"}],"stateMutability":"view"},{"type":"function","name":"initialize","inputs":[{"name":"name_","type":"string","internalType":"string"},{"name":"symbol_","type":"string","internalType":"string"}],"outputs":[],"stateMutability":"nonpayable"},{"type":"function","name":"isApprovedForAll","inputs":[{"name":"owner","type":"address","internalType":"address"},{"name":"operator","type":"address","internalType":"address"}],"outputs":[{"name":"","type":"bool","internalType":"bool"}],"stateMutability":"view"},{"type":"function","name":"name","inputs":[],"outputs":[{"name":"","type":"string","internalType":"string"}],"stateMutability":"view"},{"type":"function","name":"ownerOf","inputs":[{"name":"id","type":"uint256","internalType":"uint256"}],"outputs":[{"name":"owner","type":"address","internalType":"address"}],"stateMutability":"view"},{"type":"function","name":"safeTransferFrom","inputs":[{"name":"from","type":"address","internalType":"address"},{"name":"to","type":"address","internalType":"address"},{"name":"id","type":"uint256","internalType":"uint256"}],"outputs":[],"stateMutability":"payable"},{"type":"function","name":"safeTransferFrom","inputs":[{"name":"from","type":"address","internalType":"address"},{"name":"to","type":"address","internalType":"address"},{"name":"id","type":"uint256","internalType":"uint256"},{"name":"data","type":"bytes","internalType":"bytes"}],"outputs":[],"stateMutability":"payable"},{"type":"function","name":"setApprovalForAll","inputs":[{"name":"operator","type":"address","internalType":"address"},{"name":"approved","type":"bool","internalType":"bool"}],"outputs":[],"stateMutability":"nonpayable"},{"type":"function","name":"supportsInterface","inputs":[{"name":"interfaceId","type":"bytes4","internalType":"bytes4"}],"outputs":[{"name":"","type":"bool","internalType":"bool"}],"stateMutability":"view"},{"type":"function","name":"symbol","inputs":[],"outputs":[{"name":"","type":"string","internalType":"string"}],"stateMutability":"view"},{"type":"function","name":"tokenURI","inputs":[{"name":"id","type":"uint256","internalType":"uint256"}],"outputs":[{"name":"","type":"string","internalType":"string"}],"stateMutability":"view"},{"type":"function","name":"transferFrom","inputs":[{"name":"from","type":"address","internalType":"address"},{"name":"to","type":"address","internalType":"address"},{"name":"id","type":"uint256","internalType":"uint256"}],"outputs":[],"stateMutability":"payable"},{"type":"event","name":"Approval","inputs":[{"name":"_owner","type":"address","indexed":true,"internalType":"address"},{"name":"_approved","type":"address","indexed":true,"internalType":"address"},{"name":"_tokenId","type":"uint256","indexed":true,"internalType":"uint256"}],"anonymous":false},{"type":"event","name":"ApprovalForAll","inputs":[{"name":"_owner","type":"address","indexed":true,"internalType":"address"},{"name":"_operator","type":"address","indexed":true,"internalType":"address"},{"name":"_approved","type":"bool","indexed":false,"internalType":"bool"}],"anonymous":false},{"type":"event","name":"Transfer","inputs":[{"name":"_from","type":"address","indexed":true,"internalType":"address"},{"name":"_to","type":"address","indexed":true,"internalType":"address"},{"name":"_tokenId","type":"uint256","indexed":true,"internalType":"uint256"}],"anonymous":false}],"bytecode":{"object":"0x6080604052348015600e575f5ffd5b50610eb78061001c5f395ff3fe6080604052600436106100ac575f3560e01c806301ffc9a7146100b057806306fdde03146100e4578063081812fc14610105578063095ea7b31461015157806323b872dd1461016657806342842e0e146101795780634cd88b761461018c5780636352211e146101ab57806370a08231146101ca57806395d89b41146101f7578063a22cb4651461020b578063b88d4fde1461022a578063c87b56dd1461023d578063e985e9c51461025d575b5f5ffd5b3480156100bb575f5ffd5b506100cf6100ca366004610957565b6102a4565b60405190151581526020015b60405180910390f35b3480156100ef575f5ffd5b506100f86102f5565b6040516100db91906109a7565b348015610110575f5ffd5b5061013961011f3660046109b9565b5f908152600460205260409020546001600160a01b031690565b6040516001600160a01b0390911681526020016100db565b61016461015f3660046109e6565b610384565b005b610164610174366004610a0e565b61044b565b610164610187366004610a0e565b61061d565b348015610197575f5ffd5b506101646101a6366004610aef565b6106e5565b3480156101b6575f5ffd5b506101396101c53660046109b9565b610758565b3480156101d5575f5ffd5b506101e96101e4366004610b52565b6107ae565b6040519081526020016100db565b348015610202575f5ffd5b506100f861080f565b348015610216575f5ffd5b50610164610225366004610b6b565b61081e565b610164610238366004610ba4565b610889565b348015610248575f5ffd5b506100f86102573660046109b9565b50606090565b348015610268575f5ffd5b506100cf610277366004610c1a565b6001600160a01b039182165f90815260056020908152604080832093909416825291909152205460ff1690565b5f6301ffc9a760e01b6001600160e01b0319831614806102d457506380ac58cd60e01b6001600160e01b03198316145b806102ef5750635b5e139f60e01b6001600160e01b03198316145b92915050565b60605f805461030390610c4b565b80601f016020809104026020016040519081016040528092919081815260200182805461032f90610c4b565b801561037a5780601f106103515761010080835404028352916020019161037a565b820191905f5260205f20905b81548152906001019060200180831161035d57829003601f168201915b5050505050905090565b5f818152600260205260409020546001600160a01b0316338114806103cb57506001600160a01b0381165f90815260056020908152604080832033845290915290205460ff165b6103f05760405162461bcd60e51b81526004016103e790610c83565b60405180910390fd5b5f8281526004602052604080822080546001600160a01b0319166001600160a01b0387811691821790925591518593918516917f8c5be1e5ebec7d5bd14f71427d1e84f3dd0314c0f7b2291e5b200ac8c7c3b92591a4505050565b5f818152600260205260409020546001600160a01b038481169116146104a05760405162461bcd60e51b815260206004820152600a60248201526957524f4e475f46524f4d60b01b60448201526064016103e7565b6001600160a01b0382166104ea5760405162461bcd60e51b81526020600482015260116024820152701253959053125117d49150d25412515395607a1b60448201526064016103e7565b336001600160a01b038416148061052357506001600160a01b0383165f90815260056020908152604080832033845290915290205460ff165b8061054357505f818152600460205260409020546001600160a01b031633145b61055f5760405162461bcd60e51b81526004016103e790610c83565b6001600160a01b0383165f90815260036020526040812080549161058283610cbf565b90915550506001600160a01b0382165f9081526003602052604081208054916105aa83610cd4565b90915550505f81815260026020908152604080832080546001600160a01b038088166001600160a01b031992831681179093556004909452828520805490911690559051849391928716917fddf252ad1be2c89b69c2b068fc378daa952ba7f163c4a11628f55a4df523b3ef91a4505050565b61062883838361044b565b813b15806106c45750604051630a85bd0160e11b8082523360048301526001600160a01b03858116602484015260448301849052608060648401525f608484015290919084169063150b7a029060a4016020604051808303815f875af1158015610694573d5f5f3e3d5ffd5b505050506040513d601f19601f820116820180604052508101906106b89190610cec565b6001600160e01b031916145b6106e05760405162461bcd60e51b81526004016103e790610d07565b505050565b60065460ff161561072e5760405162461bcd60e51b81526020600482015260136024820152721053149150511657d253925512505312569151606a1b60448201526064016103e7565b5f6107398382610d87565b5060016107468282610d87565b50506006805460ff1916600117905550565b5f818152600260205260409020546001600160a01b0316806107a95760405162461bcd60e51b815260206004820152600a6024820152691393d517d3525395115160b21b60448201526064016103e7565b919050565b5f6001600160a01b0382166107f45760405162461bcd60e51b815260206004820152600c60248201526b5a45524f5f4144445245535360a01b60448201526064016103e7565b506001600160a01b03165f9081526003602052604090205490565b60606001805461030390610c4b565b335f8181526005602090815260408083206001600160a01b03871680855290835292819020805460ff191686151590811790915590519081529192917f17307eab39ab6107e8899845ad3d59bd9653f200f220920489ca2b5937696c31910160405180910390a35050565b61089484848461044b565b823b158061091d5750604051630a85bd0160e11b808252906001600160a01b0385169063150b7a02906108d1903390899088908890600401610e45565b6020604051808303815f875af11580156108ed573d5f5f3e3d5ffd5b505050506040513d601f19601f820116820180604052508101906109119190610cec565b6001600160e01b031916145b6109395760405162461bcd60e51b81526004016103e790610d07565b50505050565b6001600160e01b031981168114610954575f5ffd5b50565b5f60208284031215610967575f5ffd5b81356109728161093f565b9392505050565b5f81518084528060208401602086015e5f602082860101526020601f19601f83011685010191505092915050565b602081525f6109726020830184610979565b5f602082840312156109c9575f5ffd5b5035919050565b80356001600160a01b03811681146107a9575f5ffd5b5f5f604083850312156109f7575f5ffd5b610a00836109d0565b946020939093013593505050565b5f5f5f60608486031215610a20575f5ffd5b610a29846109d0565b9250610a37602085016109d0565b929592945050506040919091013590565b634e487b7160e01b5f52604160045260245ffd5b5f806001600160401b03841115610a7557610a75610a48565b50604051601f19601f85018116603f011681018181106001600160401b0382111715610aa357610aa3610a48565b604052838152905080828401851015610aba575f5ffd5b838360208301375f60208583010152509392505050565b5f82601f830112610ae0575f5ffd5b61097283833560208501610a5c565b5f5f60408385031215610b00575f5ffd5b82356001600160401b03811115610b15575f5ffd5b610b2185828601610ad1565b92505060208301356001600160401b03811115610b3c575f5ffd5b610b4885828601610ad1565b9150509250929050565b5f60208284031215610b62575f5ffd5b610972826109d0565b5f5f60408385031215610b7c575f5ffd5b610b85836109d0565b915060208301358015158114610b99575f5ffd5b809150509250929050565b5f5f5f5f60808587031215610bb7575f5ffd5b610bc0856109d0565b9350610bce602086016109d0565b92506040850135915060608501356001600160401b03811115610bef575f5ffd5b8501601f81018713610bff575f5ffd5b610c0e87823560208401610a5c565b91505092959194509250565b5f5f60408385031215610c2b575f5ffd5b610c34836109d0565b9150610c42602084016109d0565b90509250929050565b600181811c90821680610c5f57607f821691505b602082108103610c7d57634e487b7160e01b5f52602260045260245ffd5b50919050565b6020808252600e908201526d1393d517d055551213d49256915160921b604082015260600190565b634e487b7160e01b5f52601160045260245ffd5b5f81610ccd57610ccd610cab565b505f190190565b5f60018201610ce557610ce5610cab565b5060010190565b5f60208284031215610cfc575f5ffd5b81516109728161093f565b60208082526010908201526f155394d0519157d49150d2541251539560821b604082015260600190565b601f8211156106e057828211156106e057805f5260205f20601f840160051c6020851015610d5c57505f5b90810190601f840160051c035f5b81811015610d7f575f83820155600101610d6a565b505050505050565b81516001600160401b03811115610da057610da0610a48565b610db481610dae8454610c4b565b84610d31565b6020601f821160018114610de6575f8315610dcf5750848201515b5f19600385901b1c1916600184901b178455610e3e565b5f84815260208120601f198516915b82811015610e155787850151825560209485019460019092019101610df5565b5084821015610e3257868401515f19600387901b60f8161c191681555b505060018360011b0184555b5050505050565b6001600160a01b03858116825284166020820152604081018390526080606082018190525f90610e7790830184610979565b969550505050505056fea2646970667358221220a469cb28a6ee2ca5de13efcac6b3031757a600d451d618fdd3473bb32fafeefc64736f6c63430008210033","linkReferences":{}},"methodIdentifiers":{"approve(address,uint256)":"095ea7b3","balanceOf(address)":"70a08231","getApproved(uint256)":"081812fc","initialize(string,string)":"4cd88b76","isApprovedForAll(address,address)":"e985e9c5","name()":"06fdde03","ownerOf(uint256)":"6352211e","safeTransferFrom(address,address,uint256)":"42842e0e","safeTransferFrom(address,address,uint256,bytes)":"b88d4fde","setApprovalForAll(address,bool)":"a22cb465","supportsInterface(bytes4)":"01ffc9a7","symbol()":"95d89b41","tokenURI(uint256)":"c87b56dd","transferFrom(address,address,uint256)":"23b872dd"},"id":17}