{"abi":[{"type":"function","name":"DOMAIN_SEPARATOR","inputs":[],"outputs":[{"name":"","type":"bytes32","internalType":"bytes32"}],"stateMutability":"view"},{"type":"function","name":"allowance","inputs":[{"name":"owner","type":"address","internalType":"address"},{"name":"spender","type":"address","internalType":"address"}],"outputs":[{"name":"","type":"uint256","internalType":"uint256"}],"stateMutability":"view"},{"type":"function","name":"approve","inputs":[{"name":"spender","type":"address","internalType":"address"},{"name":"amount","type":"uint256","internalType":"uint256"}],"outputs":[{"name":"","type":"bool","internalType":"bool"}],"stateMutability":"nonpayable"},{"type":"function","name":"balanceOf","inputs":[{"name":"owner","type":"address","internalType":"address"}],"outputs":[{"name":"","type":"uint256","internalType":"uint256"}],"stateMutability":"view"},{"type":"function","name":"decimals","inputs":[],"outputs":[{"name":"","type":"uint8","internalType":"uint8"}],"stateMutability":"view"},{"type":"function","name":"initialize","inputs":[{"name":"name_","type":"string","internalType":"string"},{"name":"symbol_","type":"string","internalType":"string"},{"name":"decimals_","type":"uint8","internalType":"uint8"}],"outputs":[],"stateMutability":"nonpayable"},{"type":"function","name":"name","inputs":[],"outputs":[{"name":"","type":"string","internalType":"string"}],"stateMutability":"view"},{"type":"function","name":"nonces","inputs":[{"name":"","type":"address","internalType":"address"}],"outputs":[{"name":"","type":"uint256","internalType":"uint256"}],"stateMutability":"view"},{"type":"function","name":"permit","inputs":[{"name":"owner","type":"address","internalType":"address"},{"name":"spender","type":"address","internalType":"address"},{"name":"value","type":"uint256","internalType":"uint256"},{"name":"deadline","type":"uint256","internalType":"uint256"},{"name":"v","type":"uint8","internalType":"uint8"},{"name":"r","type":"bytes32","internalType":"bytes32"},{"name":"s","type":"bytes32","internalType":"bytes32"}],"outputs":[],"stateMutability":"nonpayable"},{"type":"function","name":"symbol","inputs":[],"outputs":[{"name":"","type":"string","internalType":"string"}],"stateMutability":"view"},{"type":"function","name":"totalSupply","inputs":[],"outputs":[{"name":"","type":"uint256","internalType":"uint256"}],"stateMutability":"view"},{"type":"function","name":"transfer","inputs":[{"name":"to","type":"address","internalType":"address"},{"name":"amount","type":"uint256","internalType":"uint256"}],"outputs":[{"name":"","type":"bool","internalType":"bool"}],"stateMutability":"nonpayable"},{"type":"function","name":"transferFrom","inputs":[{"name":"from","type":"address","internalType":"address"},{"name":"to","type":"address","internalType":"address"},{"name":"amount","type":"uint256","internalType":"uint256"}],"outputs":[{"name":"","type":"bool","internalType":"bool"}],"stateMutability":"nonpayable"},{"type":"event","name":"Approval","inputs":[{"name":"owner","type":"address","indexed":true,"internalType":"address"},{"name":"spender","type":"address","indexed":true,"internalType":"address"},{"name":"value","type":"uint256","indexed":false,"internalType":"uint256"}],"anonymous":false},{"type":"event","name":"Transfer","inputs":[{"name":"from","type":"address","indexed":true,"internalType":"address"},{"name":"to","type":"address","indexed":true,"internalType":"address"},{"name":"value","type":"uint256","indexed":false,"internalType":"uint256"}],"anonymous":false}],"bytecode":{"object":"0x6080604052348015600e575f5ffd5b50610dea8061001c5f395ff3fe608060405234801561000f575f5ffd5b50600436106100ad575f3560e01c806306fdde03146100b1578063095ea7b3146100cf5780631624f6c6146100f257806318160ddd1461010757806323b872dd14610119578063313ce5671461012c5780633644e5151461014157806370a08231146101495780637ecebe001461017157806395d89b4114610190578063a9059cbb14610198578063d505accf146101ab578063dd62ed3e146101be575b5f5ffd5b6100b96101f6565b6040516100c691906108e3565b60405180910390f35b6100e26100dd366004610933565b610285565b60405190151581526020016100c6565b610105610100366004610a08565b6102de565b005b6003545b6040519081526020016100c6565b6100e2610127366004610a7a565b61037c565b60025460405160ff90911681526020016100c6565b61010b610478565b61010b610157366004610ab4565b6001600160a01b03165f9081526004602052604090205490565b61010b61017f366004610ab4565b60086020525f908152604090205481565b6100b961049d565b6100e26101a6366004610933565b6104ac565b6101056101b9366004610acd565b61052d565b61010b6101cc366004610b33565b6001600160a01b039182165f90815260056020908152604080832093909416825291909152205490565b60605f805461020490610b64565b80601f016020809104026020016040519081016040528092919081815260200182805461023090610b64565b801561027b5780601f106102525761010080835404028352916020019161027b565b820191905f5260205f20905b81548152906001019060200180831161025e57829003601f168201915b5050505050905090565b335f8181526005602090815260408083206001600160a01b038716808552925280832085905551919290915f516020610d955f395f51905f52906102cc9086815260200190565b60405180910390a35060015b92915050565b60095460ff161561032c5760405162461bcd60e51b81526020600482015260136024820152721053149150511657d253925512505312569151606a1b60448201526064015b60405180910390fd5b5f6103378482610bf3565b5060016103448382610bf3565b506002805460ff191660ff831617905561035c61076c565b600655610367610784565b60075550506009805460ff1916600117905550565b6001600160a01b0383165f9081526005602090815260408083203384529091528120545f1981146103d5576103b18184610825565b6001600160a01b0386165f9081526005602090815260408083203384529091529020555b6001600160a01b0385165f908152600460205260409020546103f79084610825565b6001600160a01b038087165f9081526004602052604080822093909355908616815220546104259084610886565b6001600160a01b038086165f8181526004602052604090819020939093559151908716905f516020610d755f395f51905f52906104659087815260200190565b60405180910390a3506001949350505050565b5f60065461048461076c565b1461049657610491610784565b905090565b5060075490565b60606001805461020490610b64565b335f908152600460205260408120546104c59083610825565b335f90815260046020526040808220929092556001600160a01b038516815220546104f09083610886565b6001600160a01b0384165f818152600460205260409081902092909255905133905f516020610d755f395f51905f52906102cc9086815260200190565b428410156105775760405162461bcd60e51b815260206004820152601760248201527614115493525517d11150511312539157d1561412549151604a1b6044820152606401610323565b5f6001610582610478565b6001600160a01b038a165f90815260086020526040812080547f6e71edae12b1b97f4d1f60370fef10105fa2faae0126114a169c64845d6126c9928d928d928d929091906105cf83610cc5565b909155506040805160208101969096526001600160a01b0394851690860152929091166060840152608083015260a082015260c0810188905260e0016040516020818303038152906040528051906020012060405160200161064892919061190160f01b81526002810192909252602282015260420190565b60408051601f1981840301815282825280516020918201205f84529083018083525260ff871690820152606081018590526080810184905260a0016020604051602081039080840390855afa1580156106a3573d5f5f3e3d5ffd5b5050604051601f1901519150506001600160a01b038116158015906106d95750876001600160a01b0316816001600160a01b0316145b6107165760405162461bcd60e51b815260206004820152600e60248201526d24a72b20a624a22fa9a4a3a722a960911b6044820152606401610323565b6001600160a01b038181165f9081526005602090815260408083208b8516808552908352928190208a90555189815291928b16915f516020610d955f395f51905f52910160405180910390a35050505050505050565b5f6108df8061077d63ffffffff8216565b9250505090565b5f7f8b73c3c69bb8fe3d512ecc4cf759cc79239f7b179b0ffacaa9a75d522b39400f5f6040516107b49190610cdd565b60405180910390207fc89efdaa54c0f20c7adf612882df0950f5a951637e0307cdcb4c672f298b8bc66107e561076c565b604080516020810195909552840192909252606083015260808201523060a082015260c00160405160208183030381529060405280519060200120905090565b5f818310156108755760405162461bcd60e51b815260206004820152601c60248201527b45524332303a207375627472616374696f6e20756e646572666c6f7760201b6044820152606401610323565b61087f8284610d4e565b9392505050565b5f806108928385610d61565b90508381101561087f5760405162461bcd60e51b815260206004820152601860248201527745524332303a206164646974696f6e206f766572666c6f7760401b6044820152606401610323565b4690565b602081525f82518060208401528060208501604085015e5f604082850101526040601f19601f83011684010191505092915050565b80356001600160a01b038116811461092e575f5ffd5b919050565b5f5f60408385031215610944575f5ffd5b61094d83610918565b946020939093013593505050565b634e487b7160e01b5f52604160045260245ffd5b5f82601f83011261097e575f5ffd5b81356001600160401b038111156109975761099761095b565b604051601f8201601f19908116603f011681016001600160401b03811182821017156109c5576109c561095b565b6040528181528382016020018510156109dc575f5ffd5b816020850160208301375f918101602001919091529392505050565b803560ff8116811461092e575f5ffd5b5f5f5f60608486031215610a1a575f5ffd5b83356001600160401b03811115610a2f575f5ffd5b610a3b8682870161096f565b93505060208401356001600160401b03811115610a56575f5ffd5b610a628682870161096f565b925050610a71604085016109f8565b90509250925092565b5f5f5f60608486031215610a8c575f5ffd5b610a9584610918565b9250610aa360208501610918565b929592945050506040919091013590565b5f60208284031215610ac4575f5ffd5b61087f82610918565b5f5f5f5f5f5f5f60e0888a031215610ae3575f5ffd5b610aec88610918565b9650610afa60208901610918565b95506040880135945060608801359350610b16608089016109f8565b9699959850939692959460a0840135945060c09093013592915050565b5f5f60408385031215610b44575f5ffd5b610b4d83610918565b9150610b5b60208401610918565b90509250929050565b600181811c90821680610b7857607f821691505b602082108103610b9657634e487b7160e01b5f52602260045260245ffd5b50919050565b601f821115610bee5782821115610bee57805f5260205f20601f840160051c6020851015610bc757505f5b90810190601f840160051c035f5b81811015610bea575f83820155600101610bd5565b5050505b505050565b81516001600160401b03811115610c0c57610c0c61095b565b610c2081610c1a8454610b64565b84610b9c565b6020601f821160018114610c52575f8315610c3b5750848201515b5f19600385901b1c1916600184901b178455610caa565b5f84815260208120601f198516915b82811015610c815787850151825560209485019460019092019101610c61565b5084821015610c9e57868401515f19600387901b60f8161c191681555b505060018360011b0184555b5050505050565b634e487b7160e01b5f52601160045260245ffd5b5f60018201610cd657610cd6610cb1565b5060010190565b5f5f8354610cea81610b64565b600182168015610d015760018114610d1657610d43565b60ff1983168652811515820286019350610d43565b865f5260205f205f5b83811015610d3b57815488820152600190910190602001610d1f565b505081860193505b509195945050505050565b818103818111156102d8576102d8610cb1565b808201808211156102d8576102d8610cb156feddf252ad1be2c89b69c2b068fc378daa952ba7f163c4a11628f55a4df523b3ef8c5be1e5ebec7d5bd14f71427d1e84f3dd0314c0f7b2291e5b200ac8c7c3b925a2646970667358221220b2d9fe7815982d4428616d941b71f9481d631326ace55b5728e9fef267b10cff64736f6c63430008210033","linkReferences":{}},"methodIdentifiers":{"DOMAIN_SEPARATOR()":"3644e515","allowance(address,address)":"dd62ed3e","approve(address,uint256)":"095ea7b3","balanceOf(address)":"70a08231","decimals()":"313ce567","initialize(string,string,uint8)":"1624f6c6","name()":"06fdde03","nonces(address)":"7ecebe00","permit(address,address,uint256,uint256,uint8,bytes32,bytes32)":"d505accf","symbol()":"95d89b41","totalSupply()":"18160ddd","transfer(address,uint256)":"a9059cbb","transferFrom(address,address,uint256)":"23b872dd"},"id":16}