{"abi":[{"type":"constructor","inputs":[{"name":"_verifier","type":"address","internalType":"address"}],"stateMutability":"nonpayable"},{"type":"function","name":"verifier","inputs":[],"outputs":[{"name":"","type":"address","internalType":"contract IVerifier"}],"stateMutability":"view"},{"type":"function","name":"verifyAge","inputs":[{"name":"proof","type":"bytes","internalType":"bytes"},{"name":"publicInputs","type":"bytes32[]","internalType":"bytes32[]"}],"outputs":[],"stateMutability":"nonpayable"},{"type":"event","name":"AgeVerified","inputs":[{"name":"prover","type":"address","indexed":true,"internalType":"address"}],"anonymous":false}],"bytecode":{"object":"0x60a0604052348015600e575f5ffd5b50604051610397380380610397833981016040819052602b91603b565b6001600160a01b03166080526066565b5f60208284031215604a575f5ffd5b81516001600160a01b0381168114605f575f5ffd5b9392505050565b6080516103146100835f395f8181603d015260a701526103145ff3fe608060405234801561000f575f5ffd5b5060043610610034575f3560e01c80632b7ac3f314610038578063ceab0e491461007b575b5f5ffd5b61005f7f000000000000000000000000000000000000000000000000000000000000000081565b6040516001600160a01b03909116815260200160405180910390f35b61008e610089366004610192565b610090565b005b604051633a94343960e21b81526001600160a01b037f0000000000000000000000000000000000000000000000000000000000000000169063ea50d0e4906100e2908790879087908790600401610256565b6020604051808303815f875af11580156100fe573d5f5f3e3d5ffd5b505050506040513d601f19601f8201168201806040525081019061012291906102b8565b6101625760405162461bcd60e51b815260206004820152600d60248201526c24b73b30b634b210383937b7b360991b604482015260640160405180910390fd5b60405133907f82719cca0118176b0839ed3c738495293c8d75fe5953e04fc8e740cbe02d9011905f90a250505050565b5f5f5f5f604085870312156101a5575f5ffd5b84356001600160401b038111156101ba575f5ffd5b8501601f810187136101ca575f5ffd5b80356001600160401b038111156101df575f5ffd5b8760208284010111156101f0575f5ffd5b6020918201955093508501356001600160401b0381111561020f575f5ffd5b8501601f8101871361021f575f5ffd5b80356001600160401b03811115610234575f5ffd5b8760208260051b8401011115610248575f5ffd5b949793965060200194505050565b60408152836040820152838560608301375f60608583018101829052601f19601f8701168301838103820160208501529081018490526001600160fb1b0384111561029f575f5ffd5b8360051b80866080840137016080019695505050505050565b5f602082840312156102c8575f5ffd5b815180151581146102d7575f5ffd5b939250505056fea26469706673582212203ace3ff38450adb167207e109291954ac06dd8e6c5efd9393c702e87fe56600e64736f6c63430008210033","linkReferences":{}},"methodIdentifiers":{"verifier()":"2b7ac3f3","verifyAge(bytes,bytes32[])":"ceab0e49"},"id":0}